{
  "contractName": "Ballot",
  "abi": [
    {
      "constant": true,
      "inputs": [],
      "name": "chairperson",
      "outputs": [
        {
          "name": "",
          "type": "address"
        }
      ],
      "payable": false,
      "stateMutability": "view",
      "type": "function"
    },
    {
      "constant": true,
      "inputs": [],
      "name": "proposal",
      "outputs": [
        {
          "name": "name",
          "type": "string"
        },
        {
          "name": "voteCount",
          "type": "uint256"
        }
      ],
      "payable": false,
      "stateMutability": "view",
      "type": "function"
    },
    {
      "constant": true,
      "inputs": [
        {
          "name": "",
          "type": "uint256"
        }
      ],
      "name": "voters",
      "outputs": [
        {
          "name": "weight",
          "type": "uint256"
        },
        {
          "name": "voted",
          "type": "bool"
        },
        {
          "name": "delegate",
          "type": "address"
        },
        {
          "name": "vote",
          "type": "uint256"
        }
      ],
      "payable": false,
      "stateMutability": "view",
      "type": "function"
    },
    {
      "constant": false,
      "inputs": [
        {
          "name": "proposalName",
          "type": "string"
        }
      ],
      "name": "RegisterProposal",
      "outputs": [],
      "payable": false,
      "stateMutability": "nonpayable",
      "type": "function"
    },
    {
      "constant": false,
      "inputs": [
        {
          "name": "voter",
          "type": "address"
        }
      ],
      "name": "RegisterVoter",
      "outputs": [],
      "payable": false,
      "stateMutability": "nonpayable",
      "type": "function"
    },
    {
      "constant": true,
      "inputs": [
        {
          "name": "voter",
          "type": "address"
        }
      ],
      "name": "voterRegistered",
      "outputs": [
        {
          "name": "",
          "type": "bool"
        }
      ],
      "payable": false,
      "stateMutability": "view",
      "type": "function"
    },
    {
      "constant": true,
      "inputs": [],
      "name": "getVoterCount",
      "outputs": [
        {
          "name": "",
          "type": "uint256"
        }
      ],
      "payable": false,
      "stateMutability": "view",
      "type": "function"
    },
    {
      "constant": true,
      "inputs": [],
      "name": "getProposal",
      "outputs": [
        {
          "components": [
            {
              "name": "name",
              "type": "string"
            },
            {
              "name": "voteCount",
              "type": "uint256"
            }
          ],
          "name": "",
          "type": "tuple"
        }
      ],
      "payable": false,
      "stateMutability": "view",
      "type": "function"
    },
    {
      "constant": true,
      "inputs": [],
      "name": "getChairperson",
      "outputs": [
        {
          "name": "",
          "type": "address"
        }
      ],
      "payable": false,
      "stateMutability": "view",
      "type": "function"
    }
  ],
  "bytecode": "0x6060604052341561000f57600080fd5b61095f8061001e6000396000f300606060405260043610610099576000357c0100000000000000000000000000000000000000000000000000000000900463ffffffff16806311174a291461009e57806315fe6f1b146100c75780632e4176cf14610100578063387e3d2014610155578063753ec103146101a65780637d80c38e14610258578063b1a9d2f8146102ad578063b9e2bea01461030a578063da58c7d914610333575b600080fd5b34156100a957600080fd5b6100b16103af565b6040518082815260200191505060405180910390f35b34156100d257600080fd5b6100fe600480803573ffffffffffffffffffffffffffffffffffffffff169060200190919050506103bc565b005b341561010b57600080fd5b6101136104fe565b604051808273ffffffffffffffffffffffffffffffffffffffff1673ffffffffffffffffffffffffffffffffffffffff16815260200191505060405180910390f35b341561016057600080fd5b61018c600480803573ffffffffffffffffffffffffffffffffffffffff16906020019091905050610523565b604051808215151515815260200191505060405180910390f35b34156101b157600080fd5b6101b96105cd565b60405180806020018381526020018281038252848181546001816001161561010002031660029004815260200191508054600181600116156101000203166002900480156102485780601f1061021d57610100808354040283529160200191610248565b820191906000526020600020905b81548152906001019060200180831161022b57829003601f168201915b5050935050505060405180910390f35b341561026357600080fd5b61026b6105de565b604051808273ffffffffffffffffffffffffffffffffffffffff1673ffffffffffffffffffffffffffffffffffffffff16815260200191505060405180910390f35b34156102b857600080fd5b610308600480803590602001908201803590602001908080601f01602080910402602001604051908101604052809392919081815260200183838082843782019150505050505091905050610607565b005b341561031557600080fd5b61031d61068c565b6040518082815260200191505060405180910390f35b341561033e57600080fd5b6103546004808035906020019091905050610752565b60405180858152602001841515151581526020018373ffffffffffffffffffffffffffffffffffffffff1673ffffffffffffffffffffffffffffffffffffffff16815260200182815260200194505050505060405180910390f35b6000600180549050905090565b6000809054906101000a900473ffffffffffffffffffffffffffffffffffffffff1673ffffffffffffffffffffffffffffffffffffffff163373ffffffffffffffffffffffffffffffffffffffff1614151561041757600080fd5b6001805480600101828161042b91906107be565b91600052602060002090600302016000608060405190810160405280600081526020016000151581526020018573ffffffffffffffffffffffffffffffffffffffff168152602001600081525090919091506000820151816000015560208201518160010160006101000a81548160ff02191690831515021790555060408201518160010160016101000a81548173ffffffffffffffffffffffffffffffffffffffff021916908373ffffffffffffffffffffffffffffffffffffffff1602179055506060820151816002015550505050565b6000809054906101000a900473ffffffffffffffffffffffffffffffffffffffff1681565b6000806000809150600090505b6001805490508110156105c3578373ffffffffffffffffffffffffffffffffffffffff1660018281548110151561056357fe5b906000526020600020906003020160010160019054906101000a900473ffffffffffffffffffffffffffffffffffffffff1673ffffffffffffffffffffffffffffffffffffffff1614156105b657600191505b8080600101915050610530565b8192505050919050565b600280600001908060010154905082565b60008060009054906101000a900473ffffffffffffffffffffffffffffffffffffffff16905090565b336000806101000a81548173ffffffffffffffffffffffffffffffffffffffff021916908373ffffffffffffffffffffffffffffffffffffffff160217905550604080519081016040528082815260200160008152506002600082015181600001908051906020019061067b9291906107f0565b506020820151816001015590505050565b610694610870565b6002604080519081016040529081600082018054600181600116156101000203166002900480601f01602080910402602001604051908101604052809291908181526020018280546001816001161561010002031660029004801561073a5780601f1061070f5761010080835404028352916020019161073a565b820191906000526020600020905b81548152906001019060200180831161071d57829003601f168201915b50505050508152602001600182015481525050905090565b60018181548110151561076157fe5b90600052602060002090600302016000915090508060000154908060010160009054906101000a900460ff16908060010160019054906101000a900473ffffffffffffffffffffffffffffffffffffffff16908060020154905084565b8154818355818115116107eb576003028160030283600052602060002091820191016107ea9190610890565b5b505050565b828054600181600116156101000203166002900490600052602060002090601f016020900481019282601f1061083157805160ff191683800117855561085f565b8280016001018555821561085f579182015b8281111561085e578251825591602001919060010190610843565b5b50905061086c91906108fa565b5090565b604080519081016040528061088361091f565b8152602001600081525090565b6108f791905b808211156108f3576000808201600090556001820160006101000a81549060ff02191690556001820160016101000a81549073ffffffffffffffffffffffffffffffffffffffff0219169055600282016000905550600301610896565b5090565b90565b61091c91905b80821115610918576000816000905550600101610900565b5090565b90565b6020604051908101604052806000815250905600a165627a7a723058200233ca34eceda59acbfb7792f94a943f572e8ec8b8a1435f5a34d4d2e9d5e5820029",
  "source": "pragma solidity ^0.4.16;\n\ncontract Ballot {\n\n  //\n  //declare our data types\n  //\n  struct Voter {\n    uint weight;\n    bool voted;\n    address delegate;\n    uint vote;\n  }\n\n  struct Proposal {\n    string name;\n    uint voteCount;\n  }\n\n  //\n  //declare Contract variables\n  address public chairperson;\n\n  Voter[] public voters;\n  Proposal public proposal;\n\n  function RegisterProposal(string proposalName) public {\n    chairperson = msg.sender;\n    proposal = Proposal({\n      name: proposalName,\n      voteCount: 0\n    });\n  }\n\n  function RegisterVoter(address voter) public {\n    //ensure only the Chairperson can register a Voter\n    require(msg.sender == chairperson);\n\n    //future refactor to check that the person isn't already registered.\n    voters.push(Voter({\n        weight: 0,\n        voted: false,\n        delegate: voter,\n        vote: 0\n      }));\n  }\n\n  //\n  //Getters for access (currently accessed only in the unit test suite)\n  //\n  function voterRegistered(address voter) public view returns (bool) {\n    bool registered = false;\n\n    for(uint index = 0; index < voters.length; index++){\n      if(voters[index].delegate == voter){\n        registered = true;\n      }\n    }\n\n    return registered;\n  }\n\n  function getVoterCount() public view returns (uint){\n    return voters.length;\n  }\n\n  function getProposal() public view returns (Proposal) {\n    return proposal;\n  }\n\n  function getChairperson() public view returns (address){\n    return chairperson;\n  }\n}\n",
  "sourcePath": "/Users/abc/crypto-currency/ethereum/tutorials/ethereum-truffle-voting-tutorial/contracts/Ballot.sol",
  "compiler": {
    "name": "solc",
    "version": "0.4.19+commit.c4cbbb05.Emscripten.clang"
  },
  "schemaVersion": "1.0.1",
  "updatedAt": "2018-03-01T17:25:06.031Z"
}