{
  "contractName": "Ballot",
  "abi": [
    {
      "constant": true,
      "inputs": [],
      "name": "chairperson",
      "outputs": [
        {
          "name": "",
          "type": "address"
        }
      ],
      "payable": false,
      "stateMutability": "view",
      "type": "function"
    },
    {
      "constant": true,
      "inputs": [],
      "name": "proposal",
      "outputs": [
        {
          "name": "name",
          "type": "string"
        },
        {
          "name": "voteCount",
          "type": "uint256"
        }
      ],
      "payable": false,
      "stateMutability": "view",
      "type": "function"
    },
    {
      "constant": true,
      "inputs": [
        {
          "name": "",
          "type": "uint256"
        }
      ],
      "name": "voters",
      "outputs": [
        {
          "name": "weight",
          "type": "uint256"
        },
        {
          "name": "voted",
          "type": "bool"
        },
        {
          "name": "delegate",
          "type": "address"
        },
        {
          "name": "vote",
          "type": "uint256"
        }
      ],
      "payable": false,
      "stateMutability": "view",
      "type": "function"
    },
    {
      "constant": false,
      "inputs": [
        {
          "name": "proposalName",
          "type": "string"
        }
      ],
      "name": "RegisterProposal",
      "outputs": [],
      "payable": false,
      "stateMutability": "nonpayable",
      "type": "function"
    },
    {
      "constant": false,
      "inputs": [
        {
          "name": "voter",
          "type": "address"
        }
      ],
      "name": "RegisterVoter",
      "outputs": [],
      "payable": false,
      "stateMutability": "nonpayable",
      "type": "function"
    },
    {
      "constant": true,
      "inputs": [
        {
          "name": "voterIdentity",
          "type": "address"
        },
        {
          "name": "proposalName",
          "type": "string"
        }
      ],
      "name": "Vote",
      "outputs": [
        {
          "name": "",
          "type": "bool"
        }
      ],
      "payable": false,
      "stateMutability": "view",
      "type": "function"
    },
    {
      "constant": true,
      "inputs": [
        {
          "name": "voter",
          "type": "address"
        }
      ],
      "name": "voterRegistered",
      "outputs": [
        {
          "name": "",
          "type": "bool"
        }
      ],
      "payable": false,
      "stateMutability": "view",
      "type": "function"
    },
    {
      "constant": true,
      "inputs": [],
      "name": "getVoterCount",
      "outputs": [
        {
          "name": "",
          "type": "uint256"
        }
      ],
      "payable": false,
      "stateMutability": "view",
      "type": "function"
    },
    {
      "constant": true,
      "inputs": [],
      "name": "getProposalVoteCount",
      "outputs": [
        {
          "name": "",
          "type": "uint256"
        }
      ],
      "payable": false,
      "stateMutability": "view",
      "type": "function"
    },
    {
      "constant": true,
      "inputs": [],
      "name": "getChairperson",
      "outputs": [
        {
          "name": "",
          "type": "address"
        }
      ],
      "payable": false,
      "stateMutability": "view",
      "type": "function"
    }
  ],
  "bytecode": "0x6060604052341561000f57600080fd5b610b178061001e6000396000f3006060604052600436106100a4576000357c0100000000000000000000000000000000000000000000000000000000900463ffffffff16806311174a29146100a957806315fe6f1b146100d25780632e4176cf1461010b578063387e3d2014610160578063753ec103146101b15780637d80c38e146102635780637e96f4ca146102b8578063b1a9d2f8146102e1578063c8890be61461033e578063da58c7d9146103d2575b600080fd5b34156100b457600080fd5b6100bc61044e565b6040518082815260200191505060405180910390f35b34156100dd57600080fd5b610109600480803573ffffffffffffffffffffffffffffffffffffffff1690602001909190505061045b565b005b341561011657600080fd5b61011e61059d565b604051808273ffffffffffffffffffffffffffffffffffffffff1673ffffffffffffffffffffffffffffffffffffffff16815260200191505060405180910390f35b341561016b57600080fd5b610197600480803573ffffffffffffffffffffffffffffffffffffffff169060200190919050506105c2565b604051808215151515815260200191505060405180910390f35b34156101bc57600080fd5b6101c461066c565b60405180806020018381526020018281038252848181546001816001161561010002031660029004815260200191508054600181600116156101000203166002900480156102535780601f1061022857610100808354040283529160200191610253565b820191906000526020600020905b81548152906001019060200180831161023657829003601f168201915b5050935050505060405180910390f35b341561026e57600080fd5b61027661067d565b604051808273ffffffffffffffffffffffffffffffffffffffff1673ffffffffffffffffffffffffffffffffffffffff16815260200191505060405180910390f35b34156102c357600080fd5b6102cb6106a6565b6040518082815260200191505060405180910390f35b34156102ec57600080fd5b61033c600480803590602001908201803590602001908080601f016020809104026020016040519081016040528093929190818152602001838380828437820191505050505050919050506106b3565b005b341561034957600080fd5b6103b8600480803573ffffffffffffffffffffffffffffffffffffffff1690602001909190803590602001908201803590602001908080601f01602080910402602001604051908101604052809392919081815260200183838082843782019150505050505091905050610738565b604051808215151515815260200191505060405180910390f35b34156103dd57600080fd5b6103f3600480803590602001909190505061093e565b60405180858152602001841515151581526020018373ffffffffffffffffffffffffffffffffffffffff1673ffffffffffffffffffffffffffffffffffffffff16815260200182815260200194505050505060405180910390f35b6000600180549050905090565b6000809054906101000a900473ffffffffffffffffffffffffffffffffffffffff1673ffffffffffffffffffffffffffffffffffffffff163373ffffffffffffffffffffffffffffffffffffffff161415156104b657600080fd5b600180548060010182816104ca91906109aa565b91600052602060002090600302016000608060405190810160405280600081526020016000151581526020018573ffffffffffffffffffffffffffffffffffffffff168152602001600081525090919091506000820151816000015560208201518160010160006101000a81548160ff02191690831515021790555060408201518160010160016101000a81548173ffffffffffffffffffffffffffffffffffffffff021916908373ffffffffffffffffffffffffffffffffffffffff1602179055506060820151816002015550505050565b6000809054906101000a900473ffffffffffffffffffffffffffffffffffffffff1681565b6000806000809150600090505b600180549050811015610662578373ffffffffffffffffffffffffffffffffffffffff1660018281548110151561060257fe5b906000526020600020906003020160010160019054906101000a900473ffffffffffffffffffffffffffffffffffffffff1673ffffffffffffffffffffffffffffffffffffffff16141561065557600191505b80806001019150506105cf565b8192505050919050565b600280600001908060010154905082565b60008060009054906101000a900473ffffffffffffffffffffffffffffffffffffffff16905090565b6000600260010154905090565b336000806101000a81548173ffffffffffffffffffffffffffffffffffffffff021916908373ffffffffffffffffffffffffffffffffffffffff16021790555060408051908101604052808281526020016000815250600260008201518160000190805190602001906107279291906109dc565b506020820151816001015590505050565b60008060008060019250846040518082805190602001908083835b6020831015156107785780518252602082019150602081019050602083039250610753565b6001836020036101000a038019825116818451168082178552505050505050905001915050604051809103902060001916600260000160405180828054600181600116156101000203166002900480156108095780601f106107e7576101008083540402835291820191610809565b820191906000526020600020905b8154815290600101906020018083116107f5575b505091505060405180910390206000191614151561082a5760009350610935565b60001515610837876105c2565b151514156108485760009350610935565b600090505b6001805490508110156108fb578573ffffffffffffffffffffffffffffffffffffffff1660018281548110151561088057fe5b906000526020600020906003020160010160019054906101000a900473ffffffffffffffffffffffffffffffffffffffff1673ffffffffffffffffffffffffffffffffffffffff1614156108ee576001818154811015156108dd57fe5b906000526020600020906003020191505b808060010191505061084d565b60018260010160006101000a81548160ff021916908315150217905550600192506002600101600081548092919060010191905055508293505b50505092915050565b60018181548110151561094d57fe5b90600052602060002090600302016000915090508060000154908060010160009054906101000a900460ff16908060010160019054906101000a900473ffffffffffffffffffffffffffffffffffffffff16908060020154905084565b8154818355818115116109d7576003028160030283600052602060002091820191016109d69190610a5c565b5b505050565b828054600181600116156101000203166002900490600052602060002090601f016020900481019282601f10610a1d57805160ff1916838001178555610a4b565b82800160010185558215610a4b579182015b82811115610a4a578251825591602001919060010190610a2f565b5b509050610a589190610ac6565b5090565b610ac391905b80821115610abf576000808201600090556001820160006101000a81549060ff02191690556001820160016101000a81549073ffffffffffffffffffffffffffffffffffffffff0219169055600282016000905550600301610a62565b5090565b90565b610ae891905b80821115610ae4576000816000905550600101610acc565b5090565b905600a165627a7a72305820f972e6a620f505e0f8dda2851315827a80e83e128562889f44c16020134804550029",
  "source": "pragma solidity ^0.4.16;\n\ncontract Ballot {\n\n  struct Voter {\n    uint weight;\n    bool voted;\n    address delegate;\n    uint vote;\n  }\n\n  struct Proposal {\n    string name;\n    uint voteCount;\n  }\n\n  //\n  //declare Contract variables\n  //\n  address public chairperson;\n\n  Voter[] public voters;\n  Proposal public proposal;\n\n  function RegisterProposal(string proposalName) public {\n    chairperson = msg.sender;\n    proposal = Proposal({\n      name: proposalName,\n      voteCount: 0\n    });\n  }\n\n  function RegisterVoter(address voter) public {\n    //ensure only the Chairperson can register a Voter\n    require(msg.sender == chairperson);\n\n    //future refactor to check that the person isn't already registered.\n    voters.push(Voter({\n        weight: 0,\n        voted: false,\n        delegate: voter,\n        vote: 0\n      }));\n  }\n\n\n\n\n  function Vote(address voterIdentity, string proposalName) public view returns (bool) {\n    bool successfullyVoted = true;\n\n    if(keccak256(proposal.name) != keccak256(proposalName)){\n      return false;\n    }\n\n    if(voterRegistered(voterIdentity) == false){\n      return false;\n    }\n\n    Voter storage voter;\n\n    //\n    //I have a private function below, but I don't know enough why returning this variable from a private function causing a cast error (not grocking something fundamental about the Blockchain)\n    //\n    for(uint index = 0; index < voters.length; index++){\n      if(voters[index].delegate == voterIdentity){\n        voter = voters[index];\n      }\n    }\n\n    voter.voted = true;\n    successfullyVoted = true;\n\n    //voter.vote = NEEDS PASSED IN\n    proposal.voteCount++;\n\n\n    return successfullyVoted;\n  }\n\n\n  //\n  //Private support functions\n  //\n  function getVoterByIdentity(address voterIdentity) private view returns (Voter){\n    require(voterRegistered(voterIdentity) == true);\n\n    Voter storage voter;\n\n    for(uint index = 0; index < voters.length; index++){\n      if(voters[index].delegate == voterIdentity){\n        voter = voters[index];\n      }\n    }\n\n    return voter;\n  }\n\n  //\n  //Getters for access (currently accessed only in the unit test suite)\n  //\n  function voterRegistered(address voter) public view returns (bool) {\n    bool registered = false;\n\n    for(uint index = 0; index < voters.length; index++){\n      if(voters[index].delegate == voter){\n        registered = true;\n      }\n    }\n\n    return registered;\n  }\n\n  function getVoterCount() public view returns (uint){\n    return voters.length;\n  }\n\n  function getProposalVoteCount() public view returns (uint) {\n    return proposal.voteCount;\n  }\n\n  function getChairperson() public view returns (address){\n    return chairperson;\n  }\n}\n",
  "sourcePath": "/Users/abc/crypto-currency/ethereum/tutorials/ethereum-truffle-voting-tutorial/contracts/Ballot.sol",
  "compiler": {
    "name": "solc",
    "version": "0.4.19+commit.c4cbbb05.Emscripten.clang"
  },
  "schemaVersion": "1.0.1",
  "updatedAt": "2018-03-02T00:26:53.895Z"
}