{
  "contractName": "Ballot",
  "abi": [
    {
      "constant": true,
      "inputs": [
        {
          "name": "",
          "type": "uint256"
        }
      ],
      "name": "proposals",
      "outputs": [
        {
          "name": "name",
          "type": "string"
        },
        {
          "name": "voteCount",
          "type": "uint256"
        }
      ],
      "payable": false,
      "stateMutability": "view",
      "type": "function"
    },
    {
      "constant": true,
      "inputs": [],
      "name": "chairperson",
      "outputs": [
        {
          "name": "",
          "type": "address"
        }
      ],
      "payable": false,
      "stateMutability": "view",
      "type": "function"
    },
    {
      "constant": true,
      "inputs": [
        {
          "name": "",
          "type": "address"
        }
      ],
      "name": "voters",
      "outputs": [
        {
          "name": "weight",
          "type": "uint256"
        },
        {
          "name": "voted",
          "type": "bool"
        },
        {
          "name": "delegate",
          "type": "address"
        },
        {
          "name": "vote",
          "type": "uint256"
        }
      ],
      "payable": false,
      "stateMutability": "view",
      "type": "function"
    },
    {
      "constant": false,
      "inputs": [
        {
          "name": "proposalName",
          "type": "string"
        }
      ],
      "name": "Register",
      "outputs": [],
      "payable": false,
      "stateMutability": "nonpayable",
      "type": "function"
    },
    {
      "constant": true,
      "inputs": [],
      "name": "getProposalCount",
      "outputs": [
        {
          "name": "",
          "type": "uint256"
        }
      ],
      "payable": false,
      "stateMutability": "view",
      "type": "function"
    },
    {
      "constant": true,
      "inputs": [],
      "name": "getChairperson",
      "outputs": [
        {
          "name": "",
          "type": "address"
        }
      ],
      "payable": false,
      "stateMutability": "view",
      "type": "function"
    }
  ],
  "bytecode": "0x6060604052341561000f57600080fd5b6106178061001e6000396000f300606060405260043610610078576000357c0100000000000000000000000000000000000000000000000000000000900463ffffffff168063013cf08b1461007d5780632e4176cf1461013d57806340b2d3af146101925780637d80c38e146101ef578063a3ec138d14610244578063c08cc02d146102d6575b600080fd5b341561008857600080fd5b61009e60048080359060200190919050506102ff565b604051808060200183815260200182810382528481815460018160011615610100020316600290048152602001915080546001816001161561010002031660029004801561012d5780601f106101025761010080835404028352916020019161012d565b820191906000526020600020905b81548152906001019060200180831161011057829003601f168201915b5050935050505060405180910390f35b341561014857600080fd5b610150610331565b604051808273ffffffffffffffffffffffffffffffffffffffff1673ffffffffffffffffffffffffffffffffffffffff16815260200191505060405180910390f35b341561019d57600080fd5b6101ed600480803590602001908201803590602001908080601f01602080910402602001604051908101604052809392919081815260200183838082843782019150505050505091905050610356565b005b34156101fa57600080fd5b610202610402565b604051808273ffffffffffffffffffffffffffffffffffffffff1673ffffffffffffffffffffffffffffffffffffffff16815260200191505060405180910390f35b341561024f57600080fd5b61027b600480803573ffffffffffffffffffffffffffffffffffffffff1690602001909190505061042b565b60405180858152602001841515151581526020018373ffffffffffffffffffffffffffffffffffffffff1673ffffffffffffffffffffffffffffffffffffffff16815260200182815260200194505050505060405180910390f35b34156102e157600080fd5b6102e9610488565b6040518082815260200191505060405180910390f35b60028181548110151561030e57fe5b906000526020600020906002020160009150905080600001908060010154905082565b6000809054906101000a900473ffffffffffffffffffffffffffffffffffffffff1681565b336000806101000a81548173ffffffffffffffffffffffffffffffffffffffff021916908373ffffffffffffffffffffffffffffffffffffffff160217905550600280548060010182816103aa9190610495565b9160005260206000209060020201600060408051908101604052808581526020016000815250909190915060008201518160000190805190602001906103f19291906104c7565b506020820151816001015550505050565b60008060009054906101000a900473ffffffffffffffffffffffffffffffffffffffff16905090565b60016020528060005260406000206000915090508060000154908060010160009054906101000a900460ff16908060010160019054906101000a900473ffffffffffffffffffffffffffffffffffffffff16908060020154905084565b6000600280549050905090565b8154818355818115116104c2576002028160020283600052602060002091820191016104c19190610547565b5b505050565b828054600181600116156101000203166002900490600052602060002090601f016020900481019282601f1061050857805160ff1916838001178555610536565b82800160010185558215610536579182015b8281111561053557825182559160200191906001019061051a565b5b509050610543919061057e565b5090565b61057b91905b80821115610577576000808201600061056691906105a3565b60018201600090555060020161054d565b5090565b90565b6105a091905b8082111561059c576000816000905550600101610584565b5090565b90565b50805460018160011615610100020316600290046000825580601f106105c957506105e8565b601f0160209004906000526020600020908101906105e7919061057e565b5b505600a165627a7a723058206628fae0c8917d573f61a040fe0d88c08dce3484422ffe7b8bf09f84704c3f380029",
  "source": "pragma solidity ^0.4.16;\n\ncontract Ballot {\n\n  //\n  //declare our data types\n  //\n  struct Voter {\n    uint weight;\n    bool voted;\n    address delegate;\n    uint vote;\n  }\n\n  struct Proposal {\n    string name;\n    uint voteCount;\n  }\n\n  //\n  //declare Contract variables\n  address public chairperson;\n\n  mapping(address => Voter) public voters;\n\n  Proposal[] public proposals;\n\n  function Register(string proposalName) public {\n    chairperson = msg.sender;\n    proposals.push(Proposal({\n        name: proposalName,\n        voteCount: 0\n      }));\n  }\n\n  //\n  //Getters for access (currently accessed only in the unit test suite)\n  //\n  function getProposalCount() public view returns (uint) {\n    return proposals.length;\n  }\n\n  function getChairperson() public view returns (address){\n    return chairperson;\n  }\n}\n",
  "sourcePath": "/Users/abc/crypto-currency/ethereum/tutorials/ethereum-truffle-voting-tutorial/contracts/Ballot.sol",
  "compiler": {
    "name": "solc",
    "version": "0.4.19+commit.c4cbbb05.Emscripten.clang"
  },
  "schemaVersion": "1.0.1",
  "updatedAt": "2018-02-28T17:42:27.149Z"
}