{
  "contractName": "Ballot",
  "abi": [
    {
      "constant": true,
      "inputs": [
        {
          "name": "",
          "type": "uint256"
        }
      ],
      "name": "proposals",
      "outputs": [
        {
          "name": "name",
          "type": "string"
        },
        {
          "name": "voteCount",
          "type": "uint256"
        }
      ],
      "payable": false,
      "stateMutability": "view",
      "type": "function"
    },
    {
      "constant": true,
      "inputs": [],
      "name": "chairperson",
      "outputs": [
        {
          "name": "",
          "type": "address"
        }
      ],
      "payable": false,
      "stateMutability": "view",
      "type": "function"
    },
    {
      "constant": true,
      "inputs": [
        {
          "name": "",
          "type": "uint256"
        }
      ],
      "name": "voters",
      "outputs": [
        {
          "name": "weight",
          "type": "uint256"
        },
        {
          "name": "voted",
          "type": "bool"
        },
        {
          "name": "delegate",
          "type": "address"
        },
        {
          "name": "vote",
          "type": "uint256"
        }
      ],
      "payable": false,
      "stateMutability": "view",
      "type": "function"
    },
    {
      "constant": false,
      "inputs": [
        {
          "name": "proposalName",
          "type": "string"
        }
      ],
      "name": "RegisterProposal",
      "outputs": [],
      "payable": false,
      "stateMutability": "nonpayable",
      "type": "function"
    },
    {
      "constant": false,
      "inputs": [
        {
          "name": "voter",
          "type": "address"
        }
      ],
      "name": "RegisterVoter",
      "outputs": [],
      "payable": false,
      "stateMutability": "nonpayable",
      "type": "function"
    },
    {
      "constant": true,
      "inputs": [
        {
          "name": "voter",
          "type": "address"
        }
      ],
      "name": "voterRegistered",
      "outputs": [
        {
          "name": "",
          "type": "bool"
        }
      ],
      "payable": false,
      "stateMutability": "view",
      "type": "function"
    },
    {
      "constant": true,
      "inputs": [
        {
          "name": "voter",
          "type": "uint256"
        }
      ],
      "name": "getVoterAddress",
      "outputs": [
        {
          "name": "",
          "type": "address"
        }
      ],
      "payable": false,
      "stateMutability": "view",
      "type": "function"
    },
    {
      "constant": true,
      "inputs": [],
      "name": "getVoterCount",
      "outputs": [
        {
          "name": "",
          "type": "uint256"
        }
      ],
      "payable": false,
      "stateMutability": "view",
      "type": "function"
    },
    {
      "constant": true,
      "inputs": [],
      "name": "getProposalCount",
      "outputs": [
        {
          "name": "",
          "type": "uint256"
        }
      ],
      "payable": false,
      "stateMutability": "view",
      "type": "function"
    },
    {
      "constant": true,
      "inputs": [],
      "name": "getChairperson",
      "outputs": [
        {
          "name": "",
          "type": "address"
        }
      ],
      "payable": false,
      "stateMutability": "view",
      "type": "function"
    }
  ],
  "bytecode": "0x6060604052341561000f57600080fd5b610a458061001e6000396000f3006060604052600436106100a4576000357c0100000000000000000000000000000000000000000000000000000000900463ffffffff168063013cf08b146100a957806311174a291461016957806315fe6f1b146101925780632e4176cf146101cb578063387e3d20146102205780637d80c38e14610271578063b1a9d2f8146102c6578063c08cc02d14610323578063d83b2c051461034c578063da58c7d9146103af575b600080fd5b34156100b457600080fd5b6100ca600480803590602001909190505061042b565b60405180806020018381526020018281038252848181546001816001161561010002031660029004815260200191508054600181600116156101000203166002900480156101595780601f1061012e57610100808354040283529160200191610159565b820191906000526020600020905b81548152906001019060200180831161013c57829003601f168201915b5050935050505060405180910390f35b341561017457600080fd5b61017c61045d565b6040518082815260200191505060405180910390f35b341561019d57600080fd5b6101c9600480803573ffffffffffffffffffffffffffffffffffffffff1690602001909190505061046a565b005b34156101d657600080fd5b6101de6105ac565b604051808273ffffffffffffffffffffffffffffffffffffffff1673ffffffffffffffffffffffffffffffffffffffff16815260200191505060405180910390f35b341561022b57600080fd5b610257600480803573ffffffffffffffffffffffffffffffffffffffff169060200190919050506105d1565b604051808215151515815260200191505060405180910390f35b341561027c57600080fd5b61028461067b565b604051808273ffffffffffffffffffffffffffffffffffffffff1673ffffffffffffffffffffffffffffffffffffffff16815260200191505060405180910390f35b34156102d157600080fd5b610321600480803590602001908201803590602001908080601f016020809104026020016040519081016040528093929190818152602001838380828437820191505050505050919050506106a4565b005b341561032e57600080fd5b610336610750565b6040518082815260200191505060405180910390f35b341561035757600080fd5b61036d600480803590602001909190505061075d565b604051808273ffffffffffffffffffffffffffffffffffffffff1673ffffffffffffffffffffffffffffffffffffffff16815260200191505060405180910390f35b34156103ba57600080fd5b6103d060048080359060200190919050506107bb565b60405180858152602001841515151581526020018373ffffffffffffffffffffffffffffffffffffffff1673ffffffffffffffffffffffffffffffffffffffff16815260200182815260200194505050505060405180910390f35b60028181548110151561043a57fe5b906000526020600020906002020160009150905080600001908060010154905082565b6000600180549050905090565b6000809054906101000a900473ffffffffffffffffffffffffffffffffffffffff1673ffffffffffffffffffffffffffffffffffffffff163373ffffffffffffffffffffffffffffffffffffffff161415156104c557600080fd5b600180548060010182816104d99190610827565b91600052602060002090600302016000608060405190810160405280600081526020016000151581526020018573ffffffffffffffffffffffffffffffffffffffff168152602001600081525090919091506000820151816000015560208201518160010160006101000a81548160ff02191690831515021790555060408201518160010160016101000a81548173ffffffffffffffffffffffffffffffffffffffff021916908373ffffffffffffffffffffffffffffffffffffffff1602179055506060820151816002015550505050565b6000809054906101000a900473ffffffffffffffffffffffffffffffffffffffff1681565b6000806000809150600090505b600180549050811015610671578373ffffffffffffffffffffffffffffffffffffffff1660018281548110151561061157fe5b906000526020600020906003020160010160019054906101000a900473ffffffffffffffffffffffffffffffffffffffff1673ffffffffffffffffffffffffffffffffffffffff16141561066457600191505b80806001019150506105de565b8192505050919050565b60008060009054906101000a900473ffffffffffffffffffffffffffffffffffffffff16905090565b336000806101000a81548173ffffffffffffffffffffffffffffffffffffffff021916908373ffffffffffffffffffffffffffffffffffffffff160217905550600280548060010182816106f89190610859565b91600052602060002090600202016000604080519081016040528085815260200160008152509091909150600082015181600001908051906020019061073f92919061088b565b506020820151816001015550505050565b6000600280549050905090565b6000600180549050821115151561077357600080fd5b60018281548110151561078257fe5b906000526020600020906003020160010160019054906101000a900473ffffffffffffffffffffffffffffffffffffffff169050919050565b6001818154811015156107ca57fe5b90600052602060002090600302016000915090508060000154908060010160009054906101000a900460ff16908060010160019054906101000a900473ffffffffffffffffffffffffffffffffffffffff16908060020154905084565b81548183558181151161085457600302816003028360005260206000209182019101610853919061090b565b5b505050565b815481835581811511610886576002028160020283600052602060002091820191016108859190610975565b5b505050565b828054600181600116156101000203166002900490600052602060002090601f016020900481019282601f106108cc57805160ff19168380011785556108fa565b828001600101855582156108fa579182015b828111156108f95782518255916020019190600101906108de565b5b50905061090791906109ac565b5090565b61097291905b8082111561096e576000808201600090556001820160006101000a81549060ff02191690556001820160016101000a81549073ffffffffffffffffffffffffffffffffffffffff0219169055600282016000905550600301610911565b5090565b90565b6109a991905b808211156109a5576000808201600061099491906109d1565b60018201600090555060020161097b565b5090565b90565b6109ce91905b808211156109ca5760008160009055506001016109b2565b5090565b90565b50805460018160011615610100020316600290046000825580601f106109f75750610a16565b601f016020900490600052602060002090810190610a1591906109ac565b5b505600a165627a7a723058209cb0a4aa4c398efb9cdd82d022243836e6c29d72969e374150b1b52a3b72b8190029",
  "source": "pragma solidity ^0.4.16;\n\ncontract Ballot {\n\n  //\n  //declare our data types\n  //\n  struct Voter {\n    uint weight;\n    bool voted;\n    address delegate;\n    uint vote;\n  }\n\n  struct Proposal {\n    string name;\n    uint voteCount;\n  }\n\n  //\n  //declare Contract variables\n  address public chairperson;\n\n  Voter[] public voters;\n  Proposal[] public proposals;\n\n  function RegisterProposal(string proposalName) public {\n    chairperson = msg.sender;\n    proposals.push(Proposal({\n        name: proposalName,\n        voteCount: 0\n      }));\n  }\n\n  function RegisterVoter(address voter) public {\n    //ensure only the Chairperson can register a Voter\n    require(msg.sender == chairperson);\n\n    //future refactor to check that the person isn't already registered.\n    voters.push(Voter({\n        weight: 0,\n        voted: false,\n        delegate: voter,\n        vote: 0\n      }));\n  }\n\n  //\n  //Getters for access (currently accessed only in the unit test suite)\n  //\n  function voterRegistered(address voter) public view returns (bool) {\n    bool registered = false;\n\n    for(uint index = 0; index < voters.length; index++){\n      if(voters[index].delegate == voter){\n        registered = true;\n      }\n    }\n\n    return registered;\n  }\n\n  function getVoterAddress(uint voter) public view returns (address){\n    require(voter <= voters.length);\n\n    return voters[voter].delegate;\n  }\n\n  function getVoterCount() public view returns (uint){\n    return voters.length;\n  }\n\n  function getProposalCount() public view returns (uint) {\n    return proposals.length;\n  }\n\n  function getChairperson() public view returns (address){\n    return chairperson;\n  }\n}\n",
  "sourcePath": "/Users/abc/crypto-currency/ethereum/tutorials/ethereum-truffle-voting-tutorial/contracts/Ballot.sol",
  "compiler": {
    "name": "solc",
    "version": "0.4.19+commit.c4cbbb05.Emscripten.clang"
  },
  "schemaVersion": "1.0.1",
  "updatedAt": "2018-03-01T17:15:11.638Z"
}